:100000000C9465000C948D000C948D000C948D0064
:100010000C948D000C948D000C94A1140C948D0004
:100020000C948D000C948D000C9425140C94AB143E
:100030000C948D000C94D1130C948D000C948D00B5
:100040000C9487130C948D000C9455130C942F135F
:100050000C948D000C948D000C948D000C948D00EC
:100060000C9467150C948D000000000025002800FA
:100070002B0000000008000201000003040700003C
:1000800000000000000000000000240027002A00FB
:10009000010204081020408001020408102001021F
:1000A00004081020040404040404040402020202EC
:1000B00002020303030303037C3C3E5E2B3D3F2F00
:1000C0005B5D3B2C2A225C00861611241FBECFEFFD
:1000D000D8E0DEBFCDBF12E0A0E0B1E0E8ECF7E48D
:1000E00002C005900D92AA3FB107D9F727E0AAEF09
:1000F000B2E001C01D92A339B207E1F710E0C5E6F6
:10010000D0E004C02197FE010E948722C436D107A7
:10011000C9F70E943A170C94E2230C9400008F92C6
:100120009F92AF92BF92FF920F931F93CF93DF9353
:10013000F0908C072BE02F1508F451C020918E070A
:1001400008E512E0021B110927FD1395000F111F8E
:10015000000F111F20918D07C8E8D0E0C21BD10904
:1001600027FDD395CC0FDD1FCC0FDD1F4E010D2ECB
:10017000000CAA08BB08DC01853B910514F0A4EB38
:10018000B0E09801012E000C440B550B28193909D9
:100190004A095B090E94F21F24EB30E040E050E086
:1001A0000E94C81F820E931EA41EB51E8C169D06AB
:1001B0002CF0E801801691060CF4E4012297CC0F94
:1001C000DD1F2FB7F8948F2D90E0FC01EE0FFF1F7D
:1001D000E80FF91FE959F84FD283C1832FBFDF9190
:1001E000CF911F910F91FF90BF90AF909F908F90F4
:1001F000089590915404809153042FEF3FEF981786
:1002000048F4E92FF0E0ED5CFB4F208130E09F5F88
:1002100090935404C901089590915404809153041B
:100220002FEF3FEF981748F4E92FF0E0ED5CFB4F1C
:10023000208130E09F5F90935404C901089591E0BC
:1002400090933204809331041092300410922F0462
:10025000089520912F0481E0213208F044C080915C
:100260002E048111FCCF8091310492E090932E04F2
:1002700091E090932D049FEF90932C0410922B0407
:1002800020932A04A8EEB3E0E8E0F4E090E029131C
:1002900031C01092290490912904880F892B8093F2
:1002A000290480912804813049F510922804809116
:1002B00029048093BB008091BC0083FDF8CF85ECBE
:1002C0008093BC0080912E048230E1F380912C0455
:1002D0008F3FB1F080912C048032A1F080912C04EA
:1002E000803391F084E01092300410922F04109229
:1002F000320408953D9131939F5FC9CF85EEE0CFE1
:1003000080E0F1CF82E0EFCF83E0EDCF8091530426
:1003100090915404891B990B089508950895AF9204
:10032000BF92CF92DF92EF92FF920F931F93CF93E2
:10033000DF936C017B018B01040F151FEB015E0144
:10034000AE18BF08C017D10759F06991D601ED91D9
:10035000FC910190F081E02DC6010995892B79F778
:10036000C501DF91CF911F910F91FF90EF90DF902A
:10037000CF90BF90AF900895FC01538D448D252FF1
:1003800030E0842F90E0821B930B541710F0CF962F
:10039000089501970895FC01918D828D981761F061
:1003A000A28DAE0FBF2FB11D5D968C91928D9F5F78
:1003B0009F73928F90E008958FEF9FEF0895FC0157
:1003C000918D828D981731F0828DE80FF11D858D0A
:1003D00090E008958FEF9FEF0895FC01918D228D9D
:1003E000892F90E0805C9F4F821B91098F73992722
:1003F000089586E596E00E94ED0121E0892B09F43D
:1004000020E0822F089580E090E0892B29F00E945F
:10041000F90181110C9400000895FC01A48DA80F2E
:10042000B92FB11DA35ABF4F2C91848D90E0019636
:100430008F739927848FA689B7892C93A089B18956
:100440008C91837080648C93938D848D981306C0F7
:100450000288F389E02D80818F7D80830895EF925B
:10046000FF920F931F93CF93DF93EC0181E0888F6E
:100470009B8D8C8D98131AC0E889F989808185FF3E
:1004800015C09FB7F894EE89FF896083E889F989E0
:1004900080818370806480839FBF81E090E0DF91E2
:1004A000CF911F910F91FF90EF900895F62E0B8D35
:1004B00010E00F5F1F4F0F731127E02E8C8D8E11F0
:1004C0000CC00FB607FCFACFE889F989808185FF57
:1004D000F5CFCE010E940D02F1CFEB8DEC0FFD2F79
:1004E000F11DE35AFF4FF0829FB7F8940B8FEA8912
:1004F000FB8980818062CFCF682F86E596E00C94DF
:100500002F02CF93DF93EC01888D8823B9F0AA895D
:10051000BB89E889F9898C9185FD03C0808186FDBE
:100520000DC00FB607FCF7CF8C9185FFF2CF80810D
:1005300085FFEDCFCE010E940D02E9CFDF91CF9173
:10054000089590E0FC01EE58FF4F2491FC01E05724
:10055000FF4F3491FC01EC55FF4FE491EE23C9F0BD
:10056000222339F0233001F1A8F4213019F122308F
:1005700029F1F0E0EE0FFF1FE859FF4FA591B4916C
:100580008FB7F894EC91611126C030953E233C93CF
:100590008FBF08952730A9F02830C9F0243049F7DB
:1005A000809180008F7D03C0809180008F77809341
:1005B0008000DFCF84B58F7784BDDBCF84B58F7D9E
:1005C000FBCF8091B0008F778093B000D2CF809125
:1005D000B0008F7DF9CF3E2BDACFCF93DF9390E041
:1005E000FC01E057FF4F24918C559F4FFC018491F3
:1005F0008823D1F090E0880F991FFC01EA57FF4F44
:10060000A591B491FC01E859FF4FC591D4916111B6
:100610000EC09FB7F8948C91E22FE0958E238C93B7
:100620002881E223E8839FBFDF91CF9108958FB7A0
:10063000F894EC91E22BEC938FBFF6CF80918C076E
:100640008C3008F051C061E083E00E94ED0280919F
:100650008C07282F30E0F901EE0FFF1FE20FF31F88
:10066000E959F84F9081907C9360908310928D07A8
:1006700010928E072CE0622F0E946722829FB001A9
:10068000112430E020E0AB01420F531FFA01EE0FBE
:10069000FF1FE40FF51FE959F84F908196FD16C032
:1006A0002F5F3F4F2C30310571F781110FC0109231
:1006B000800082E080938100109285001092840077
:1006C000B19A80916F00826080936F00E0918C07F7
:1006D0008E2F90E0FC01EE0FFF1FE80FF91FE95984
:1006E000F84F80818064808380918C0708953FB7A4
:1006F000F89480914C0390914D03A0914E03B091DA
:100700004F0326B5A89B05C02F3F19F00196A11DE8
:10071000B11D3FBFBA2FA92F982F8827BC01CD014B
:10072000620F711D811D911D42E0660F771F881FAA
:10073000991F4A95D1F708958F929F92AF92BF92D9
:10074000CF92DF92EF92FF924B015C010E94770300
:100750006B017C010E9477036C197D098E099F094A
:10076000683E734081059105A8F321E0821A910843
:10077000A108B10888EEC80E83E0D81EE11CF11C68
:1007800081149104A104B10429F7FF90EF90DF9048
:10079000CF90BF90AF909F908F9008952FB7F8940F
:1007A000609148037091490380914A0390914B03F3
:1007B0002FBF08958FB7F894809140038FBF08959D
:1007C00061E0FC0184810E94A10280913F038111BC
:1007D00010923F0308958EBD00000DB407FEFDCFBB
:1007E0008EB508958FEF0C94EB030F931F93CF9367
:1007F000DF93EC010E94CE038B010E94F2038F3F36
:1008000069F00E94CE03601B710B6C177D07A8F383
:1008100080E0DF91CF911F910F91089581E0F9CF92
:100820008CBD9DBD0895CF93DF93EC0180913F0374
:10083000811109C081E080933F0380910E07909160
:100840000F070E94100460E08C81DF91CF910C941F
:10085000A1028F929F92AF92BF92FF920F931F932C
:10086000CF93DF93EC01F62E49015A018E81882344
:1008700089F08F8198859C012F5F3F4F38872F83A8
:100880008230924018F40E94F203F3CFCE010E940E
:10089000E0031E82CE010E9413048CE291E00E94CC
:1008A000F5038F2D80640E94EB0308E110E0D50171
:1008B000C401002E04C0B695A795979587950A9414
:1008C000D2F70E94EB0308501109083F8FEF180779
:1008D00071F785E9FF2021F028E087E8F2128FEF19
:1008E0000E94EB0310E00E94F2038A8787FF04C096
:1008F0001F3F11F01F5FF7CFDF91CF911F910F9135
:10090000FF90BF90AF909F908F900895AF92BF924D
:10091000CF92DF92EF92FF920F931F93CF93DF93CB
:10092000EC016901C801820F931F8130924050F59C
:100930008E81882379F088819981AA81BB8184176F
:100940009507A607B70731F48F819885C816D90691
:1009500008F042C0488359836A837B838B85833048
:1009600039F089E0440F551F661F771F8A95D1F72C
:100970009A01AB0161E1CE010E942904882389F02C
:1009800083E08D83CE010E94E00380E0DF91CF9170
:100990001F910F91FF90EF90DF90CF90BF90AF909D
:1009A00008950E94CE035B010E94F2038A878F3F65
:1009B00069F40E94CE036A197B096D327140A0F37D
:1009C0008FE08D83CE010E94E003DCCF8E3F89F45F
:1009D00018861F8281E08E838F8198858C159D05F6
:1009E00050F40E94F2038F819885019698878F8337
:1009F000F3CF8DE0E6CF6701E00EF11E0E94F20317
:100A0000F60181936F01EE15FF05C1F78F8198857F
:100A1000080F191F18870F838985882319F001157E
:100A20001240A0F08E81882389F08F8198859C01E7
:100A30002F5F3F4F38872F838230924018F40E94F7
:100A4000F203F3CFCE010E94E0031E8281E09ECF2D
:100A5000EF92FF920F931F93CF93DF93EC017901F5
:100A600082E1411551056105710599F08B8583304F
:100A700039F089E0440F551F661F771F8A95D1F71B
:100A80009A01AB0168E1CE010E942904882319F084
:100A900084E08D8330C08EEF0E94EB0387018EEFE0
:100AA000F81AF80181918F010E94EB030E151F05C2
:100AB000C1F78FEF0E94EB038FEF0E94EB030E94C0
:100AC000F2038A878F71853089F488E592E00E946D
:100AD000F5038823A9F020E030E0A9016DE0CE0104
:100AE0000E942904882371F084E1D3CF81E18D83B2
:100AF000CE010E94E003CE010E94E00380E00AC024
:100B000085E1C7CF0E94F2038111EECFCE010E9492
:100B1000E00381E0DF91CF911F910F91FF90EF9063
:100B20000895CF93DF93809155048823A9F1C09154
:100B3000E303D091E40340910501509106016091D7
:100B400007017091080126E534E0CE010E942805D6
:100B5000811104C080E0DF91CF910895409141035D
:100B60005091420360914303709144034115510534
:100B70006105710579F026E534E0CE010E94280573
:100B8000882341F3109241031092420310924303D1
:100B9000109244031092550481E0DDCF8F929F9212
:100BA000AF92BF92EF92FF920F931F93CF934B019F
:100BB0005C01C42F8091050190910601A09107016D
:100BC000B091080188159905AA05BB0549F10E9455
:100BD000910581110BC080E0CF911F910F91FF9083
:100BE000EF90BF90AF909F908F90089586E5E82E8C
:100BF00084E0F82E00E012E030E020E0B501A4012E
:100C00008091E3039091E4030E948604882319F302
:100C10008092050190920601A0920701B09208010E
:100C2000409155044C2B4093550481E0D5CF8F92D1
:100C30009F92AF92BF92CF92DF92EF92FF92CF93AB
:100C400020E137E03093E4032093E303882309F4A1
:100C50006DC040E060E070E0CB010E94CE058111E4
:100C60000BC080E0CF91FF90EF90DF90CF90BF90CE
:100C7000AF909F908F900895809114068F7789F799
:100C80008091200690912106A0912206B091230622
:100C900084369105A105B10520F3C0901C06D090C3
:100CA0001D06E0901E06F0901F06C114D104E10459
:100CB000F104B9F240E0C701B6010E94CE058823D5
:100CC00081F280916104909162048115924049F60D
:100CD000A0916604AA2329F26091640470916504CE
:100CE0006115710509F4BDCF20916304222309F435
:100CF000B8CFA0932E072093200790E080E030E04B
:100D0000E1E0F0E0C82FAF01082E02C0440F551FEC
:100D10000A94E2F72417350769F041E0480F01967D
:100D20008930910579F7409329079BCFC12CD12CAD
:100D30007601C0CF8093290720916C0430916D0417
:100D400050E040E02115310541F420917A043091C2
:100D50007B0440917C0450917D04209321073093C3
:100D60002207409323075093240746015701860E1C
:100D7000971EA11CB11C80922F0790923007A09261
:100D80003107B0923207E0916704F0916804F09364
:100D90003507E0933407B0E00E94E71FDC01CB0188
:100DA000880D991DAA1DBB1D8093360790933707A8
:100DB000A0933807B093390725E0EE0FFF1F2A955F
:100DC000E1F7E150FE4FEF2FFF27E6958E0F9F1FB3
:100DD000A11DB11D80932A0790932B07A0932C0788
:100DE000B0932D078090690490906A04B12CA12CD7
:100DF0008114910441F48090760490907704A0903F
:100E00007804B0907904C81AD90AEA0AFB0AC80C17
:100E1000D91CEA1CFB1C04C0F694E794D794C79431
:100E2000CA95D2F7C0922507D0922607E0922707ED
:100E3000F092280785EFC8168FE0D806E104F10488
:100E400028F48CE08093330781E00CCF80E125EF1C
:100E5000C2162FEFD206E104F104A0F380918204C0
:100E600090918304A0918404B09185048093360707
:100E700090933707A0933807B093390780E2E2CF09
:100E80004F925F926F927F928F929F92AF92BF929A
:100E9000CF92DF92EF92FF920F931F93CF93DF9346
:100EA000EC01423051056105710590F480E0DF915D
:100EB000CF911F910F91FF90EF90DF90CF90BF9057
:100EC000AF909F908F907F906F905F904F9008951C
:100ED00089859A85AB85BC850196A11DB11D8417B6
:100EE0009507A607B70710F3CB88DC88ED88FE8846
:100EF0008F89803109F042C0BB27A72F962F852FFD
:100F0000480159012A013B01C80ED91EEA1EFB1EE9
:100F10008091050190910601A0910701B09108010F
:100F2000C816D906EA06FB0699F58F898031C1F506
:100F3000B301A201552766277727440F551F4A5A48
:100F40005B4FFA0191828082809155048160809389
:100F500055048A89823080F08D819E81AF81B88569
:100F60008C0D9D1DAE1DBF1D8093410390934203C8
:100F7000A0934303B093440381E099CFDB01CA01FE
:100F8000E7E0B695A79597958795EA95D1F7B8CFFD
:100F900040E0C701B6010E94CE058111C6CF86CFC1
:100FA000B301A2014F77552766277727440F551FB6
:100FB000440F551F4A5A5B4FFA0180829182A282E8
:100FC000B382C2CF8F929F92AF92BF92CF92DF92A5
:100FD000EF92FF920F931F93CF93DF93FC018185D4
:100FE0009285A385B4850196A11DB11D841795072F
:100FF000A607B70770F480E0DF91CF911F910F91A2
:10100000FF90EF90DF90CF90BF90AF909F908F9028
:10101000089583889488A588B6888789803189F562
:10102000BB27A72F962F852FE9016A017B018F012E
:10103000BC01CD01680D791D8A1D9B1D80900501A5
:1010400090900601A0900701B090080186169706BF
:10105000A806B90601F5F8018789803111F5DD246C
:10106000EE24FF24F601EE0FFF1FEA5AFB4F8081AA
:101070009181B0E0A0E088839983AA83BB8381E05B
:10108000BBCFDB01CA01C7E0B695A79597958795B9
:10109000CA95D1F7C9CF40E00E94CE058111DBCFC0
:1010A000AACFE894C7F8DD24EE24FF24F601EE0F62
:1010B000FF1FEE0FFF1FEA5AFB4F80819181A28133
:1010C000B381BF70D8CF4F925F926F927F92AF92F1
:1010D000BF92CF92DF92EF92FF920F931F93CF9325
:1010E000DF9300D000D0CDB7DEB78C0149835A839F
:1010F0006B837C835901C12CD12C7601412C82E079
:10110000582E612C712C49815A816B817C819E0102
:101110002F5F3F4FC8010E94E207882339F1F80191
:101120008585A301920104C0220F331F441F551F60
:101130008A95D2F7DA01C901C80ED91EEA1EFB1E34
:1011400049815A816B817C818789803111F188EFD7
:101150009FEFAFEFBFE0481759076A077B0798F288
:10116000F501C082D182E282F38281E00F900F907C
:101170000F900F90DF91CF911F910F91FF90EF9003
:10118000DF90CF90BF90AF907F906F905F904F9027
:10119000089588EF9FEFA0E0B0E0DDCFCF93DF931D
:1011A000FC012581222321F080E0DF91CF91089579
:1011B000EC0180913307803159F582E08583178AED
:1011C000108E118E128E8091340790913507B0E009
:1011D000A0E025E0880F991FAA1FBB1F2A95D1F711
:1011E000838B948BA58BB68B8CE197E09C8F8B8F38
:1011F00081E08C831E821F82188619861A861B86C0
:101200001C861D861E861F86188A198A1A8ACDCFCB
:10121000803251F683E0858340913607509137073D
:101220006091380770913907478B508F618F728FAB
:101230009F012D5E3F4F8CE197E00E946308811172
:10124000D3CFB2CF8F929F92AF92BF92CF92DF92C5
:10125000EF92FF920F931F93CF93DF93EC018D8159
:1012600081110EC080E0DF91CF911F910F91FF900F
:10127000EF90DF90CF90BF90AF909F908F900895A8
:101280000B891C892D893E89041715072607370706
:1012900048F34A015B01823031F48A869B86AC8632
:1012A000BD8681E0E0CF81149104A104B10449F42A
:1012B0001E821F82188619861A861B861C861D862A
:1012C000F0CF0A851B852C853D85EB8DFC8D8585B2
:1012D00090E00996B901A8014150510961097109CD
:1012E000082E04C076956795579547950A94D2F7CE
:1012F00075016401E1E0CE1AD108E108F10804C0EB
:10130000F694E794D794C7948A95D2F7C416D50675
:10131000E606F70620F0012B022B032B11F58F892F
:10132000988DA98DBA8D8E839F83A887B9878E01EA
:101330000A5F1F4FC114D104E104F10409F4ADCFD9
:101340004E815F816885798598018B8D9C8D0E9487
:10135000E20791E0C91AD108E108F1088111EACF4A
:1013600081CFC41AD50AE60AF70AE1CF20910C070B
:1013700030910D072115310541F0AB01BC01C901C8
:101380000E94220991E0811101C090E0892F089507
:101390003F924F925F926F927F928F929F92AF9205
:1013A000BF92CF92DF92EF92FF920F931F93CF9352
:1013B000DF93CDB7DEB72C970FB6F894DEBF0FBE24
:1013C000CDBF5C01DC015B968D909C905C9716967E
:1013D0004D905D906D907C9019974114510461047B
:1013E000710409F468C0BFEF4B1A5B0A6B0A7B0AF1
:1013F000312CF40181859285A385B4859C01AD01D2
:101400002F5F3F4F4F4F5F4F29873A874B875C874E
:10141000730162011D821E821F821886F40181857C
:101420009285A385B4852D813E814F8158852817EB
:1014300039074A075B0708F056C089859A85AB854E
:10144000BC858C159D05AE05BF0550F482E0C82E05
:10145000D12CE12CF12C92E0492E512C612C712CD5
:101460009E012F5F3F4FB701A601C4010E94E20712
:101470008823C9F189819A81AB81BC81892B8A2B10
:101480008B2B09F1260137019FEF491A590A690A86
:10149000790A2D813E814F8158852F5F3F4F4F4FF5
:1014A0005F4F2D833E834F8358873FEFC31AD30A84
:1014B000E30AF30AB3CFF401408051806280738065
:1014C0003324339496CFC414D504E604F70409F703
:1014D0000FEF1FEF2FEF3FE0B701A601C4010E94FD
:1014E0004007811119C080E02C960FB6F894DEBF3A
:1014F0000FBECDBFDF91CF911F910F91FF90EF9065
:10150000DF90CF90BF90AF909F908F907F906F9023
:101510005F904F903F900895F50146815781608517
:101520007185411551056105710539F097018601F5
:10153000C4010E9440078823B1F2D5011696CD92CE
:10154000DD92ED92FC921997332051F0D701C6013C
:101550000196A11DB11DF40180839183A283B38301
:10156000F5018789908DA18DB28D892B8A2B8B2BCC
:1015700039F4C78AD08EE18EF28E848180688483AC
:1015800081E0B2CF2F923F924F925F926F927F9203
:101590008F929F92AF92BF92CF92DF92EF92FF9283
:1015A0000F931F93CF93DF93EC015B012A018D8191
:1015B000811115C08FEF9FEFDF91CF911F910F9198
:1015C000FF90EF90DF90CF90BF90AF909F908F9063
:1015D0007F906F905F904F903F902F9008958C81F7
:1015E00080FFE8CF0B891C892D893E894A855B8560
:1015F0006C857D85C201B0E0A0E068017901C41A64
:10160000D50AE60AF70AC816D906EA06FB0618F450
:101610002801441A550A42011E0126E0220E311CFF
:101620008114910409F4B3C04A855B856C857D857E
:101630006A0181E0D8228B8D9C8D8A019B01E9E0B3
:101640003695279517950795EA95D1F7ED81E23004
:10165000E1F5FC01628D738D848D958D600F711F96
:10166000821F931F612C22E0722E6C187D08861455
:10167000970408F434012C8126FD04C06114F2E0C3
:101680007F0671F400910501109106012091070178
:1016900030910801061717072807390709F053C0CA
:1016A00040E00E94CE05882309F484CFC6018A5AFF
:1016B0009B4FD5019C01260D371DFC012E173F07BE
:1016C00009F460C041914D93F9CFFC0174807A9484
:1016D0007022C114D10471F471100CC0452B462B3B
:1016E000472B39F58F89988DA98DBA8D8E839F836D
:1016F000A887B987EB8DFC8D6E817F818885998560
:101700006250710981099109258504C0660F771F10
:10171000881F991F2A95D2F7068517852089318958
:10172000600F711F821F931F670D711D811D911D19
:1017300099CF4E815F816885798591010E94E2078A
:101740008111D8CF37CF750183019601AB01BC0160
:101750008091E3039091E4030E948604882309F4B6
:1017600029CFA60CB71C8A859B85AC85BD85860DC7
:10177000971DA11DB11D8A879B87AC87BD878618E1
:1017800097084ECF281B390BA20EB31EECCFC20117
:1017900013CFCF93DF93EC018D81882389F18C8166
:1017A00087FF2AC06E857F858889998941E00E94DC
:1017B000CE05882329F1EA8980E2E89FF00111240F
:1017C000EA5AFB4F3097E1F08D81823040F48B89EB
:1017D0009C89AD89BE89848F958FA68FB78F8F899D
:1017E000988D938F828F8F89988DA98DBA8DB58BA7
:1017F000A48B8C818F778C83DF91CF910C94910592
:1018000080E0DF91CF910895CF93DF93EC010E94A8
:10181000C90B882311F01D8281E0DF91CF910895DB
:101820002F923F924F925F926F927F928F929F92F0
:10183000AF92BF92CF92DF92EF92FF920F931F93DE
:10184000CF93DF9300D000D0CDB7DEB78C015B0122
:101850001A01DC0115968C911597813009F0C8C0EA
:1018600014968C9181FFC4C082FDAEC06101D80185
:101870001A964D915D916D917C911D97C114D10483
:1018800009F429C15B968D919C915C97FC01748051
:101890002FEF270D2A013B0139E076946794579486
:1018A00047943A95D1F7722E74207A01F1E0FF2225
:1018B000711020C0E114F104E9F416964D915D9188
:1018C0006D917C911997411551056105710509F0DC
:1018D00098C057968D919D910D90BC91A02D009729
:1018E000A105B10509F0AFC0C8010E94C80988234D
:1018F00009F47EC080E092E08E199F0946018C15A4
:101900009D0508F44C01D8015B964D915C915C9764
:1019100016968D919D910D90BC91A02D0297A109D5
:10192000B109FA01258504C0880F991FAA1FBB1FA2
:101930002A95D2F74685578560897189840F951F4E
:10194000A61FB71F9C01AD01270D311D411D511D63
:1019500029013A01811432E0930609F07AC080919E
:10196000050190910601A0910701B091080184152D
:101970009505A605B70559F48FEF9FEFDC0180931D
:10198000050190930601A0930701B093080195010A
:10199000B301A2018091E3039091E4030E94280522
:1019A000882331F19EEFB91AC818D908F801828549
:1019B0009385A485B585880D991DA11DB11D8287CC
:1019C0009387A487B58753CFF801438954896589E4
:1019D000768982859385A485B585481759076A0756
:1019E0007B0709F443CFC8010E94220981113ECF31
:1019F00081E090E0D80113969C938E93129780E03B
:101A000007C09E012F5F3F4F0E94E207811102C075
:101A100090E077C089819A81AB81BC81F801238DE8
:101A2000348DF901278948EF5FEF60E070E02031E5
:101A300021F048EF5FEF6FEF7FE084179507A6076F
:101A4000B70708F051CFF80186839783A087B18745
:101A500051CFE114F10491F5D8011A964D915D91A1
:101A60006D917C911D9753968D919D910D90BC9198
:101A7000A02D481759076A077B0700F10E949105BE
:101A8000882309F4B5CF4092050150920601609277
:101A9000070170920801809155048160809355047C
:101AA00097012A5A3B4FD501C901880D991DF901AB
:101AB0008E179F0759F04D914193FACF41E0C30132
:101AC000B2010E94CE058111EBCF92CF821B930B06
:101AD000A80EB91E69CFF80183899489A589B689B2
:101AE00084179507A607B70738F48481438B548B76
:101AF000658B768B80688483F801848183FD18C0B0
:101B0000C1010F900F900F900F90DF91CF911F9117
:101B10000F91FF90EF90DF90CF90BF90AF909F908C
:101B20008F907F906F905F904F903F902F9008958F
:101B3000C8010E94C90B882309F45ACFE1CFCF9383
:101B4000DF931F92CDB7DEB7698341E050E0BE015D
:101B50006F5F7F4F0E94100C0F90DF91CF9108951F
:101B6000FC01DB0112968D919C91139793838283E4
:101B70008BE391E09183808314968C9114978483F6
:101B800015968C911597858316964D915D916D9163
:101B90007C91199746835783608771871A964D9178
:101BA0005D916D917C911D974287538764877587FE
:101BB0001E964D915D916D917C9151974687578707
:101BC000608B718B52968C915297828B53964D916C
:101BD0005D916D917C915697438B548B658B768B81
:101BE00057964D915D916D917C915A97478B508F8F
:101BF000618F728F5B968D919C91948F838F0895E6
:101C00000895FC01818D928D009711F00C94C90B01
:101C10000895DC015996ED91FC913097B9F08389D4
:101C20009489A589B6894285538564857585841B09
:101C3000950BA60BB70B811520E89207A105B105FE
:101C400038F08FEF9FE7A0E0B0E0089590E080E0EB
:101C50000895CF93DF93EC01E98DFA8D309749F425
:101C600081E090E09B838A8390E080E0DF91CF91D8
:101C7000089513821282898D9A8D0E94100CE98D2D
:101C8000FA8D22813381232B59F7F0CFCF93DF9345
:101C90001F92CDB7DEB76983DC01ED91FC91028024
:101CA000F381E02D41E050E0BE016F5F7F4F099569
:101CB0000F90DF91CF910895CF93DF931F92CDB70F
:101CC000DEB741E050E0BE016F5F7F4F0E94C20A65
:101CD000019731F4898190E00F90DF91CF910895C1
:101CE0008FEF9FEFF9CFFC01818D928D009711F05E
:101CF0000C945C0E8FEF9FEF08950F931F93CF937B
:101D0000DF93EC01898D9A8D10E000E0009799F047
:101D10000E945C0E8C010F3F100769F0898D9A8D2F
:101D2000FC014285538564857585415051096109DF
:101D300071090E942209C801DF91CF911F910F9173
:101D4000089585ED8093BC008091BC0084FDFCCF9C
:101D500010922E04089520911B03260F3327331F62
:101D600021323105ECF420912E04FC0190E080E05A
:101D7000243069F082E00895A0911B032191AC0109
:101D800045505D4FA40FB52FB11D2C9301968617BA
:101D900098F380911B03680F60931B0380E0089504
:101DA00081E008950895E091540480915304E81768
:101DB00030F4F0E0ED5CFB4F808190E008958FEF10
:101DC0009FEF0895CF92DF92EF92FF920F931F93B0
:101DD000CF93DF937C01CB018A012091320422232F
:101DE00089F0EB016B01C40ED51ECC15DD0569F041
:101DF0006991D701ED91FC910190F081E02DC7012F
:101E00000995F3CF642F0E94AB0EC801DF91CF91EB
:101E10001F910F91FF90EF90DF90CF900895CF9397
:101E2000DF931F92CDB7DEB769832091320422235E
:101E3000F9F020912F04203258F021E030E0FC012D
:101E40003383228390E080E00F90DF91CF9108955B
:101E500080913004E82FF0E0E851FC4F99819083A5
:101E60008F5F8093300480932F0481E090E0ECCF6B
:101E700061E0CE0101960E94AB0EF7CF682F8BE593
:101E800097E00C940F0F90E080E008950F931F935C
:101E9000CF93DF93EC0180E2689FF0011124EA5AAE
:101EA000FB4F6A8B8091050190910601A09107017B
:101EB000B09108018E879F87A88BB98B04891589FB
:101EC00030E020E09801112700270F8B188F298F11
:101ED0003A8F828D938DB0E0A0E0AC01BD01402B24
:101EE000512B622B732B4F8B588F698F7A8F838581
:101EF0008871A9F4848D958DA68DB78D8B8B9C8B65
:101F0000AD8BBE8B81E08D8381E08C831E821F822E
:101F1000188619861A861B861C861D8603C080318A
:101F200031F080E0DF91CF911F910F9108959E01D4
:101F30002D5E3F4F8B8D9C8D0E946308882389F313
:101F400084E0E1CF90912E049111FCCF282F91E0F5
:101F500090932E0490932D043FEF30932C04109215
:101F60002B04380F30932A0490932904909129046C
:101F7000906D9093290490912804913019F5109256
:101F80002804909129049093BB009091BC0093FD8C
:101F9000F8CF95EC9093BC0090912E049130E1F332
:101FA00090912B04981710F420912B04A8E0B4E032
:101FB000E3E3F4E080E0821307C0109254048093BE
:101FC0005304089595EEE6CF9D9191938F5FF3CFE3
:101FD00088E60E941F0181E090E00E943E0F0E946F
:101FE000290181E090E00E94A20F0E940C01982F2D
:101FF00092959F708F702AE0929F800D1124089512
:1020000088E60E941F0190E080E00E943E0F0E943F
:10201000290181E090E00E94A20F0E940C01982FFC
:1020200092959F708F702AE0929F800D11240895E1
:1020300088E60E941F0186E090E00E943E0F0E9409
:10204000290181E090E00E94A20F0E940C01982FCC
:1020500092959F708F702AE0929F800D11240895B1
:1020600088E60E941F0185E090E00E943E0F0E94DA
:10207000290181E090E00E94A20F0E940C01982F9C
:10208000991F9927991F9093E703982F929597701E
:102090008F702AE0929F800D1124089588E60E9497
:1020A0001F0184E090E00E943E0F0E94290181E020
:1020B00090E00E94A20F0E940C01982F92959F70B1
:1020C0008F702AE0929F800D1124089588E60E9467
:1020D0001F0182E090E00E943E0F0E94290181E0F2
:1020E00090E00E94A20F0E940C0121E0AC0140741C
:1020F000552786FF20E02093E603282F22952F7096
:10210000382F3F70452B61F085FB992790F990930C
:10211000E5032170832F9AE0299F800D11240895F3
:102120002370F8CFF89484B7877F84BF80916000D4
:1021300088618093600081E28093600080916000FC
:10214000806480936000789483B7817F846083BFCC
:1021500083B7816083BF889583B78E7F83BF83B742
:102160008E7F83BF8091590790915A078F3F9807C0
:1021700091F09C01220F331F220F331F20728770B2
:102180008860822B98E10FB6F894A8959093600030
:102190000FBE8093600080E49FE1089588E60E946E
:1021A0001F018FE090E00E943E0F0E94290181E014
:1021B00090E00E94A20F0E940C010895AF92BF927E
:1021C000CF92DF92EF92FF920F931F93CF93DF9303
:1021D000CDB7DEB72B970FB6F894DEBF0FBECDBFDD
:1021E0006C01FE013196CE010C967F0120E2219315
:1021F000E817F907E1F7DA0120E037E09D91B92E01
:102200009923A9F19E32B9F43A3091F480E02B96EB
:102210000FB6F894DEBF0FBECDBFDF91CF911F91F7
:102220000F91FF90EF90DF90CF90BF90AF90089507
:1022300028E03AE0E3CFE8EBF0E08491882321F056
:1022400031969813FACFE2CF321700F38FED890F52
:102250008E35E0F68FE9890F8A3118F440EEB42EFE
:10226000B90EF701E20FF11DB0822F5FC7CF898150
:10227000803261F28B01FB01838D948DF601948F86
:10228000838FFB01168217821086118612861386B1
:1022900014861586F80182859385A485B5854389C2
:1022A00054896589768984179507A607B70708F0CA
:1022B000ADCF25E0B695A795979587952A95D1F747
:1022C000F82FFF70AF2EF8018581823008F49ECF81
:1022D000C8010E945C0E97FD99CFF8018285938515
:1022E000A485B5854F96A11DB11D82879387A487CC
:1022F000B587F0E2AF9EB00111246A5A7B4F611599
:10230000710509F483CFFB018081882309F1853EA3
:1023100019F4B11032C01EC04BE050E0C7010E945A
:10232000C623892B09F0B6CF6A2DC6012B960FB6AE
:10233000F894DEBF0FBECDBFDF91CF911F910F91FB
:10234000FF90EF90DF90CF90BF90AF900C94460F2E
:10235000B1105CCFF601A28A80910501909106012F
:10236000A0910701B091080186879787A08BB18B58
:10237000FB018081882309F449CFBB24B3948ACF21
:1023800080910C0790910D07009761F00E94040C5A
:1023900080910C0790910D070E943D2310920D072C
:1023A00010920C070895FC0101900020E9F7319785
:1023B000AF01481B590BBC0186E596E00C948F01D8
:1023C00085E591E00C94D3118F929F92AF92BF92CA
:1023D0000F931F93CF93DF93CDB7DEB7A1970FB6BF
:1023E000F894DEBF0FBECDBF19A2423008F44AE018
:1023F0008E010F5D1F4F842E912CB12CA12CA501B5
:1024000094010E94FA1FE62FB901CA01EA30F4F4E0
:10241000E05DD801EE938D01232B242B252B79F73A
:1024200090E080E0109719F0CD010E94D311A196A1
:102430000FB6F894DEBF0FBECDBFDF91CF911F91D5
:102440000F91BF90AF909F908F900895E95CE1CF7E
:10245000682F70E090E080E04AE00C94E411CF92A5
:10246000DF92EF92FF92CF93DF936C01092E000C65
:10247000EE08FF0897FF17C08DE20E947C02EC0176
:1024800066277727CB016C197D098E099F094AE0E1
:102490000E94E4118C0F9D1FDF91CF91FF90EF9070
:1024A000DF90CF9008954AE0C701B601DF91CF9148
:1024B000FF90EF90DF90CF900C94E411CF93DF93D7
:1024C0000E942F12EC010E94E0118C0F9D1FDF91E2
:1024D000CF9108958F929F92AF92BF92CF92DF9249
:1024E000EF92FF921F93CF93DF936B017C01B42E89
:1024F00020E030E0A9010E949820D0E0C0E087FFF2
:1025000008C08DE20E947C02EC01F7FAF094F7F823
:10251000F09410E060E070E080E09FE31B1541F074
:1025200020E030E040E251E40E949D201F5FF6CFA2
:10253000A70196010E942C206B017C010E940F21B3
:102540004B015C014AE00E94E411C80FD91F11231E
:10255000B1F1C501B4010E943E219B01AC01C7014C
:10256000B6010E942B206B017C018EE20E947C024E
:10257000C80FD91F115018F120E030E040E251E4BB
:10258000C701B6010E94F5214B015C010E940F2199
:102590006B01F12CE12C4AE0C701B6010E94E41165
:1025A000C80FD91FC701B6010E943E219B01AC0193
:1025B000C501B4010E942B206B017C01DBCFCE0151
:1025C000DF91CF911F91FF90EF90DF90CF90BF9060
:1025D000AF909F908F9008950C94D311CF93DF9379
:1025E0000E94D311EC010E94E0118C0F9D1FDF911E
:1025F000CF910895EF92FF920F931F93CF93DF93A4
:10260000EC017B018A011B821A8288EE93E0A0E034
:10261000B0E08C839D83AE83BF8389E291E0998390
:1026200088838DE190E00E94A1229A8F898F009784
:1026300079F02DE1F701DC0101900D922A95E1F787
:102640004CE050E0B801CE010C960E94D323188EC6
:10265000DF91CF911F910F91FF90EF9008951F92FE
:102660000F920FB60F9211242F933F934F935F93C6
:102670006F937F938F939F93AF93BF93EF93FF934A
:1026800086E596E00E940D02FF91EF91BF91AF9118
:102690009F918F917F916F915F914F913F912F917A
:1026A0000F900FBE0F901F9018951F920F920FB6AC
:1026B0000F9211242F938F939F93EF93FF93E091A9
:1026C0006606F09167068081E0916C06F0916D06D8
:1026D00082FD1BC0908180916F068F5F8F73209168
:1026E0007006821741F0E0916F06F0E0EA5AF94F68
:1026F000958F80936F06FF91EF919F918F912F910E
:102700000F900FBE0F901F9018958081F4CF1F92ED
:102710000F920FB60F9211242F933F938F939F9395
:10272000AF93BF938091480390914903A0914A03CE
:10273000B0914B033091470323E0230F2D3758F519
:102740000196A11DB11D20934703809348039093E8
:102750004903A0934A03B0934B0380914C0390919B
:102760004D03A0914E03B0914F030196A11DB11DE1
:1027700080934C0390934D03A0934E03B0934F036B
:10278000BF91AF919F918F913F912F910F900FBE6D
:102790000F901F90189526E8230F0296A11DB11DDA
:1027A000D2CF1F920F920FB60F9211242F933F9307
:1027B0008F939F93EF93FF938091020186FD2BC02F
:1027C000809156032091550330E4839FC00111246A
:1027D000895A9C4F820F911DFC01808190E090935B
:1027E0008B0080938A009093890080938800809169
:1027F00055038F5F80935503809155038034B0F467
:10280000FF91EF919F918F913F912F910F900FBE6C
:102810000F901F9018958091460391E0892780932F
:10282000460380914603882359F2EACF109255035C
:10283000E0915603F0E0E050FF4F91E090838091EB
:102840005603892780935603DBCF1F920F920FB652
:102850000F9211242F933F934F935F936F937F9326
:102860008F939F93AF93BF93EF93FF93E0915603A2
:1028700091E0E927F0E0E050FF4F80818823B9F133
:102880008091560389278093450380916F008F7D47
:1028900080936F00789483EF96E00E94090E209158
:1028A000D7033091D8032817390790F1809102019E
:1028B00083FF0CC06CE270E080E090E00E94B609FB
:1028C00080916F00806280936F0011C080916F00D3
:1028D0008E7D80936F00E0910C07F0910D0730978B
:1028E00021F0858181110E94C0111092D903FF91BE
:1028F000EF91BF91AF919F918F917F916F915F9178
:102900004F913F912F910F900FBE0F901F901895F0
:102910006091450380910C0790910D07009751F04D
:1029200020E4629FB0011124695A7C4F40E450E0DA
:102930000E94C20AE0914503F0E0E050FF4F108290
:10294000BFCF1F920F920FB60F9211240F900FBEA0
:102950000F901F9018951F920F920FB60F9211248F
:102960002F933F934F935F936F937F938F939F9397
:10297000AF93BF93CF93DF93EF93FF9380913E0389
:10298000C0918B07D0E087FF24C010928500109281
:10299000840080913E038F5F80933E0380913E03CD
:1029A000082E000C990B8C179D0724F480913E0390
:1029B0008C30C4F18091840090918500049680341D
:1029C0009C4908F47AC08091840090918500049617
:1029D00076C080913E03082E000C990B8C179D0742
:1029E000C4F6E0913E038E2FEE0F990BFC01EE0F23
:1029F000FF1FE80FF91FE959F84F808186FFC9CF03
:102A0000E0913E038E2FEE0F990BFC01EE0FFF1F9E
:102A1000E80FF91FE959F84F808160E08F730E9439
:102A2000A102B7CF2091840030918500E0913E0350
:102A30008E2FEE0F990BFC01EE0FFF1FE80FF91F11
:102A4000E959F84F81819281820F931F90938900F9
:102A500080938800E0913E038E2FEE0F990BFC01CE
:102A6000EE0FFF1FE80FF91FE959F84F808186FF2D
:102A700011C0E0913E038E2FEE0F990BFC01EE0F7B
:102A8000FF1FE80FF91FE959F84F808161E08F734C
:102A90000E94A102FF91EF91DF91CF91BF91AF9181
:102AA0009F918F917F916F915F914F913F912F9166
:102AB0000F900FBE0F901F90189580E49CE99093A3
:102AC0008900809388008FEF80933E03E3CF1F92AD
:102AD0000F920FB60F9211242F933F934F935F9352
:102AE0006F937F938F939F93AF93BF93EF93FF93D6
:102AF0008091B900887F803609F44AC0F0F58832A9
:102B000009F4A7C018F5803109F49BC0B8F48823F4
:102B100009F4F9C0883009F494C0FF91EF91BF9196
:102B2000AF919F918F917F916F915F914F913F9165
:102B30002F910F900FBE0F901F901895883109F4B8
:102B400088C0803251F780932C0414C0803409F47B
:102B50009DC040F48033B9F38833F9F680932C0498
:102B600085ECB0C0803509F485C0883509F496C07D
:102B7000883499F60E94A10ED0CF883909F48CC010
:102B800038F5883729F050F4883611F0803729F667
:102B900083E080932E0410923D0357C0883809F4D7
:102BA0007BC0803919F0803809F0B7CF80913D03A0
:102BB000803208F071C0E0913D0381E08E0F809378
:102BC0003D038091BB00F0E0E35EFC4F80833DC09D
:102BD000803B39F0E0F4803A09F479C0883A09F092
:102BE0009CCF84E080932E0410921C0310921B0350
:102BF000E0915203F0915303099580911B038111D9
:102C00000FC081E080931B031092FB0209C0803C3F
:102C100009F4A6CF883C09F4A3CF883B09F07DCF07
:102C2000E0911C0381E08E0F80931C03F0E0E550DF
:102C3000FD4F80818093BB0090911C0380911B030A
:102C400029C0809129048093BB0085EC8093BC004F
:102C500064CF90912B0480912A04981758F5E09145
:102C60002B0481E08E0F80932B04F0E0E85FFB4F94
:102C70008081E9CFE0912B0481E08E0F80932B04BB
:102C80008091BB00F0E0E85FFB4F808390912B04C4
:102C900080912A049817C8F285E8D8CFE0912B04D8
:102CA00081E08E0F80932B048091BB00F0E0E85F01
:102CB000FB4F808380912D0481115CCF81E0809354
:102CC000280484EA8093BC0010922E0426CF85EC61
:102CD0008093BC0010922E0480913D03803230F42A
:102CE000E0913D03F0E0E35EFC4F108260913D0314
:102CF00070E0E0915003F09151038DE193E009956C
:102D000010923D030ACF10922C0434CF1092590632
:102D10001092580688EE93E0A0E0B0E080935A0647
:102D200090935B06A0935C06B0935D0627E131E0CB
:102D3000309357062093560625EC30E03093630617
:102D40002093620624EC30E03093650620936406FD
:102D500020EC30E0309367062093660621EC30E0EB
:102D6000309369062093680622EC30E030936B06BE
:102D700020936A0626EC30E030936D0620936C06B3
:102D800010926F06109270061092710610927206E1
:102D90001092F6061092F5068093F7069093F806C7
:102DA000A093F906B093FA0629E231E03093F406D5
:102DB0002093F30610920D0710920C071092FF0655
:102DC00020E520930E0710920F071092150710921E
:102DD00016071092190710921B0742E050E060E0BE
:102DE00070E040931C0750931D0760931E0770937B
:102DF0001F071092330710923D0710923C072BE3F8
:102E000031E030933B0720933A0710923F072FEFB2
:102E10003FEF30935A072093590710925E071092A4
:102E20005D0780935F0790936007A0936107B0935D
:102E3000620787E491E090935C0780935B07809141
:102E40008B078C3098F491E0980F90938B078093C8
:102E50008C0790E0FC01EE0FFF1FE80FF91FE95906
:102E6000F84F88EB9BE09283818308958FEF8093E6
:102E70008C070895CF93DF93CDB7DEB7C358D10940
:102E80000FB6F894DEBF0FBECDBF789484B58260D4
:102E900084BD84B5816084BD85B5826085BD85B5FE
:102EA000816085BD80916E00816080936E0010927C
:102EB00081008091810082608093810080918100F7
:102EC0008160809381008091800081608093800088
:102ED0008091B10084608093B1008091B0008160E6
:102EE0008093B00080917A00846080937A00809112
:102EF0007A00826080937A0080917A00816080936A
:102F00007A0080917A00806880937A001092C100E4
:102F100010925404109253041092300410922F0413
:102F200010922E0481E080932D041092280461E019
:102F300082E10E94A10261E083E10E94A1028091EE
:102F4000B9008E7F8093B9008091B9008D7F809306
:102F5000B90088E48093B80085E48093BC008DE8D4
:102F600091E090935303809352038EE891E0909305
:102F7000510380935003E0916606F091670682E06A
:102F80008083E0916206F09163061082E09164060E
:102F9000F09165068FEC808310926E06E0916A06D0
:102FA000F0916B0686E08083E0916806F0916906F7
:102FB000808180618083E0916806F091690680815C
:102FC00088608083E0916806F0916906808180685E
:102FD0008083E0916806F091690680818F7D80830F
:102FE00060E081E10E94ED0261E08EE00E94ED026E
:102FF00060E08EE00E94A10288E591E00E94EC1260
:1030000042E06AE979E989E19EE30E946A120E943E
:10301000E01189E08093DB0380913F07882321F052
:103020008AE397E00E94040C10921B071092190784
:10303000109216071092150784E0809314070E94DF
:10304000CE038B0161E0809114070E94ED0261E0E4
:10305000809114070E94A102BFB6F8948091540396
:10306000811127C0EEEAF0E08491EAE9F0E0949162
:10307000E82FF0E0EE0FFF1FEA57FF4FA591B49144
:10308000EC919E2321F461E08AE00E94A10261E0BC
:103090008AE00E94ED028CB580618CBD8CB58064A5
:1030A0008CBD61E08DE00E94ED0261E08BE00E944A
:1030B000ED02809154038F5F80935403BFBE82E57D
:1030C00080930E0710920F0780910E0790910F07C3
:1030D0000E9410047AE0B72E8FEF0E94EB03BA949F
:1030E000B110FACF80E197E00E94130420E030E0B5
:1030F000A90160E080E197E00E942904B82E809346
:103100001A0721E0821709F458C00E94CE03601B01
:10311000710B613D774050F381E08093150780E1AA
:1031200097E00E94E00388E791E00E94EE12809110
:103130000F0190911001A0911101B0911201E99637
:103140008CAF9DAFAEAFBFAFE997412C2AE6522EB0
:1031500028E1622E712C812C35E3932E3CE0A32EC6
:10316000B12C83E480937C0080917A00806480930A
:103170007A0080917A0086FDFCCF90917800809152
:1031800079002091030130910401220F331F220F97
:10319000331F892798278927821793070CF0CDC3FF
:1031A0000E94921080E090E0892BD9F20E94F901F0
:1031B0008823B9F20E940000D4CF2AEA31E040E02F
:1031C00050E068E080E197E00E94290482FF2AC075
:1031D000B0921B0780911B07812C912CA12C50E4ED
:1031E000B52E823019F0812C912C540120E030E072
:1031F000A90167E380E197E00E942904A5019401F9
:1032000069E280E197E00E94290480931A078823ED
:10321000D1F00E94CE03601B710B613D774030F30B
:1032200088E07BCF64E0B62E0E94F20380931A07F9
:10323000BA94B110F9CF8A3A11F082E06ECF82E0F1
:1032400080931B07C7CF80911B078230D1F420E009
:1032500030E0A9016AE380E197E00E942904882315
:1032600011F086E05ACF0E94F203807C803C19F472
:1032700083E080931B070E94F2030E94F2030E94E6
:10328000F20380E197E00E94E00380E580930E075F
:1032900010920F0781E00E941706882309F407C1E6
:1032A0008AE397E00E94CE08882309F43CCF8FE69A
:1032B00091E00E94EE1285E791E00E94EC1288E610
:1032C0000E941F0181E190E00E943E0F0E942901AF
:1032D00082E090E00E94A20F9091530480915404E8
:1032E000812C4CE3942E4CE1A42E46ECB42E98177E
:1032F00009F4E4C00E940C01182F0E940C0160E048
:10330000712F682B96E0759567959A95E1F7072ED2
:10331000000C880B990B0E94402120E030E040E82F
:103320005EE30E94F5214B015C01AC019B010E9410
:103330006222882309F4C2C080E891E00E94D31180
:103340008CE891E00E94EE120E94CE1087FFEEC042
:103350008FE891E00E94EE120E94E0118AEB91E06A
:103360000E94EE120E944E100E9428128EE20E94CD
:103370007C020E9430100E9428128EE20E947C0281
:103380008091E70300ED17E0882311F004E318E0D3
:103390000E941810800F912F911D0E942F128FEB09
:1033A00092E00E94EC120E9466100E9428128AE3AA
:1033B0000E947C020E94E80F0E9428128AE30E9469
:1033C0007C020E9400100E9428120E94E0118AECE8
:1033D00091E00E94EE1290E080E00E94B21F90E027
:1033E00090930401809303010E945E120E94CE0319
:1033F0004B015C0183EE91E00E94EE128EE492E0BC
:103400000E94EE12212C00E08AE0382E14E693E6AA
:10341000921508F478C20C3308F075C20E94CE03EE
:10342000A50194012053384F4F4F5F4F26173707A0
:103430004807590778F40E94CE034B015C010E5FE8
:103440008CE390E0801B91090E942F128DE892E09E
:103450000E94EE1286E596E00E94ED01181619060C
:10346000B4F6239486E596E00E94CB018053EFEFFB
:10347000E20DE73160F6F0E0E05CF54E0C94872257
:10348000991A9B1A071A9D1AA11A071AA31AA71AA2
:10349000A91AAD1A071AB11AB51A071AB71ABD1A1E
:1034A000071ABF1AC51A071ACB1AD11AD71A80E001
:1034B0000E941706882309F436CEF2CE14012501A6
:1034C000E89457F82FEF3FEF4FE75FE7C201B101F4
:1034D0000E94622281110DC02FEF3FEF4FE75FE79F
:1034E000C201B1010E94982018161CF484E891E0F2
:1034F00025CF2FEF3FEF4FE75FE4C501B4010E94F6
:10350000F02118161CF488E891E018CF2FEF3FEF58
:103510004FE75FECC501B4010E94982087FDF3CF0F
:1035200042E0C501B4010E946A120ACF86EA91E026
:1035300011CFD82E6CCFC82E6ACFE6968FAFE69704
:1035400066CFF82E64CFEC968FAFEC9760CF782ED5
:103550005ECFED968FAFED975ACFEE968FAFEE9789
:1035600056CFEF968FAFEF9752CFE82E50CFC1587E
:10357000DF4F8883CF57D0404ACF682E48CFC058FE
:10358000DF4F8883C058D04042CFCF57DF4F88836A
:10359000C158D0403CCFCE57DF4F8883C258D0406F
:1035A00036CFCD57DF4F8883C358D04030CF2C2D36
:1035B00030E0D901D39CA00DB11D11246D01AF2CB9
:1035C000B12CE696BFADE697B39DA00CB11C1124BB
:1035D00028EE33E0EC96EFADEC97E29F4001E39FDD
:1035E000900C1124719E800C911C1124ED96FFAD5E
:1035F000ED97F39D800C911C1124EE962FADEE9764
:10360000820E911C30ED831A37E0930AF12CEF966D
:103610004FADEF97439DE00CF11C1124712CC15864
:10362000DF4F5881CF57D040539D600C711C11243F
:10363000CF57DF4F9881C158D040492E512CC058E8
:10364000DF4FA881C058D040A39D400C511C1124CD
:10365000CD57DF4FB881C358D040B39D900111249E
:10366000F901CE57DF4F4881C258D040419FE00D4D
:10367000F11D11248F01080F111D8BE992E00E94AA
:10368000EC12C6010E942F128BEA92E00E94EC120B
:10369000C5010E942F128BEA92E00E94EC12C40135
:1036A0000E942F128FEB92E00E94EC12C7010E9441
:1036B0002F128DEA92E00E94EC12C3010E942F1299
:1036C0008DEA92E00E94EC12C2010E945E128FEA23
:1036D00092E00E94EC12C8010E945E121093040155
:1036E00000930301602F90E080E00E94BA1F64E61F
:1036F00070E080E090E00E949C0388E60E941F0139
:1037000082E090E00E943E0F0E94290181E090E05B
:103710000E94A20F0E940C01182F88E60E941F0130
:1037200082E090E00E943E0F612F6F7B8BE597E077
:103730000E940F0F0E94290188E60E941F0186E067
:1037400090E00E943E0F882D632D0E946722829593
:10375000807F682F690F8BE597E00E940F0F0E9412
:10376000290188E60E941F0185E090E00E943E0F3B
:103770008A2D632D0E9467228295807F682F690FB2
:103780008BE597E00E940F0F0E94290188E60E94B6
:103790001F0184E090E00E943E0F8C2D632D0E945B
:1037A00067228295807F682F690F8BE597E00E94E2
:1037B0000F0F0E9429011E2D88E60E941F0182E042
:1037C00090E00E943E0F0E94290181E090E00E945B
:1037D000A20F0E940C0186FFA6C01D3008F49AC0FB
:1037E00084EF8E0D632D0E946722182F1295107F93
:1037F000190F106688E60E941F0182E090E00E9487
:103800003E0F612F8BE597E00E940F0F0E94290168
:1038100088E60E941F0181E090E00E943E0F862D05
:10382000632D0E9467228295807F682F690F8BE548
:1038300097E00E940F0F0E94290188E60E941F0155
:1038400090E080E00E943E0F842D632D0E9467224D
:103850008295807F682F690F8BE597E00E940F0F9C
:103860000E9429010E94CE10182F88E60E941F0195
:103870008FE090E00E943E0F612F6F778BE597E01D
:103880000E940F0F0E94290160ED77E080E090E038
:103890000E949C0381EC92E00E94EE120E944E1066
:1038A0000E9428128EE20E947C020E9430100E9428
:1038B00028128EE20E947C028091E70300ED17E05F
:1038C000882311F004E318E00E941810800F912F54
:1038D000911D0E942F128FEB92E00E94EC120E9429
:1038E00066100E9428128AE30E947C020E94E80F60
:1038F0000E9428128AE30E947C020E9400100E940B
:1039000028120E94E01160ED77E080E090E00E94D4
:103910009C030DCC8E2D632D0E9467228295807FA3
:10392000182F190F67CF8E2D632D0E946722182F35
:103930001295107F190F1F7B5DCF0E94E80F182F83
:103940000E940010D82E1B3309F02ACC51E35817DF
:1039500008F026CC8091E70300ED17E0882311F0F2
:1039600004E318E00E941810F82E0E943010E82E90
:103970000E944E10C82E0E946610282F8DEF8E0DCB
:10398000883008F057C08CEF8E0D863040F10F0D57
:10399000111D83E0E81228C038E1E22FF0E0C39E59
:1039A000E00DF11D112445E0409FC001419F900DA5
:1039B00011249595879595958795049667E070E015
:1039C0000E9473224FE150E0481B590B349FC00105
:1039D000359F900D11240296E817F9075CF12F5FCF
:1039E000283141F520E026C09AE0E91223C038E1F1
:1039F000E22FF0E0C39EE00DF11D112445E0409F51
:103A0000C001419F900D11249595879595958795B7
:103A1000019667E070E00E9473224FE150E0481B7E
:103A2000590B349FC001359F900D11240296E81761
:103A3000F907ACF2CC24C394C20EACE0AC1518F478
:103A4000F5EFCF2EC20EBBE3DB12ACCB0E941E0300
:103A500061E08EE00E94A102EEEBEE2EF12CC70198
:103A60000E948F0064E070E080E090E00E949C0380
:103A7000E1E0EE1AF108FCE3EF16F10481F7E091C2
:103A80008C078E2F90E0FC01EE0FFF1FE80FF91F4F
:103A9000E959F84F80818F7B80836CE271E080E090
:103AA00090E00E949C03DD24D3947BE3272E71E0F9
:103AB000372E9E012B5F3F4FE5963FAF2EAFE59728
:103AC000CD1408F42AC29091DB038091E203981789
:103AD00009F471C01092D90380916F008E7D80939C
:103AE0006F000E94C0118091800090E0880F892FA4
:103AF000881F990B0197C9F58091880090918900E2
:103B000050E040E02091E0033091E1034217530779
:103B100060F570E060E097FD05C0B901821793077A
:103B200008F4BC0170938B0060938A0070E060E041
:103B300097FD05C0B9018217930708F4BC01709383
:103B4000890060938800225331096AE070E0E091B7
:103B50008400F0918500E217F307C8F36150710902
:103B6000B1F74F5F5F4F0197CDCF80910201806227
:103B700080930201109281001092800061E0809198
:103B8000DB030E94ED028091DB03863009F46CC1F7
:103B90008E3209F46BC1853009F06AC181E08093EF
:103BA000DA038DB581608DBD8CB58C7F8CBD809125
:103BB000DB038093E2031092D90380916F008E7D26
:103BC00080936F000E94C0111C821B823A8229825E
:103BD0001E82CE0101960E94CE08BE016F5F7F4F0C
:103BE000CE01CB960E94B00D19A218A23F8E2E8E48
:103BF0001BA221968FAD219781113DC16C961FAEFE
:103C00001EAE6C9788EE93E0A0E0B0E0A0968CAF7B
:103C10009DAFAEAFBFAFA09789E291E06A969FAF2C
:103C20008EAF6A97E3961FAE1EAEE397A5961FAEC2
:103C3000A5976C968EAD9FAD6C979093F60680938A
:103C4000F506A0968CAD9DADAEADBFADA0978093AF
:103C5000F7069093F806A093F906B093FA06A49697
:103C60008CAD9DADAEADBFADA4978093FB06909398
:103C7000FC06A093FD06B093FE06A8E5B0E0AC0FED
:103C8000BD1F1C96EFEFF6E08D91819397E0EC302D
:103C9000F907D1F7E3968EAD9FADE39790930D07AB
:103CA00080930C0768E070E080E090E00E94B60925
:103CB000E9962CAD3DAD4EAD5FADE99729833A83D2
:103CC0004B835C838E010F5F1F4F83EF96E00E9452
:103CD000730ED8012D918D01022E000C330B82172B
:103CE000930739F4E596EEADFFADE597EA17FB07CC
:103CF00061F768E170E080E090E00E94B60983EF30
:103D000096E00E94730E9093DF038093DE0383EFAF
:103D100096E00E94730EEB968FAFEB97EA961FAE7C
:103D2000EA978091DE039091DF03EB962EAD3FADD5
:103D3000EB97822B932B9093DF038093DE036CE24F
:103D400070E080E090E00E94B60980E490E09093FB
:103D5000D8038093D70381E08093D9038091020137
:103D6000982F9F77909302012091DE033091DF031B
:103D70002B3F3F4A30F020EC3DE53093DF032093AA
:103D8000DE032091DE033091DF0350E040E086FF48
:103D900094C0C501B4010E94C81F6AE0629FC001BF
:103DA000639F900D11249093E1038093E00383EFD0
:103DB00096E00E94730E8C0183EF96E00E947D0EC8
:103DC0002091880030918900800F911F97FD019606
:103DD00095958795992750E040E02817390708F016
:103DE0006FC02F5F3F4F8217930708F49C01FA01C1
:103DF000E95AFC4F20834F5F5F4F4034510589F7EC
:103E000050E040E02F5F3F4F8217930708F49C017A
:103E1000FA01E956FC4F20834F5F5F4F4034510554
:103E200089F710925603109200011092010110922E
:103E30005503F8948091E0039091E10390938700FB
:103E40008093860082EB8093800089E180938100DB
:103E500081E280936F00789460EB74E080E090E002
:103E60000E949C03D3942CCE82E099CE83E097CE1F
:103E70001092DA0396CE4FEE52E0BE01655C7F4FA2
:103E8000CE014E960E94DE10882309F4B7CECE01F3
:103E9000CB960E94040CBE01625E7F4FCE0101965C
:103EA0000E94B00D4FEE52E0BE016F5F7F4FCE011A
:103EB000885A9F4F0E94FA12BCCEC301B2016BCF49
:103EC000B901615071096817790718F12115310599
:103ED00009F09B01FA01E95AFC4F20834F5F5F4FC5
:103EE0004034510569F750E040E0B9016150710973
:103EF0006817790780F02115310509F09B01FA0157
:103F0000E956FC4F20834F5F5F4F4034510569F7FE
:103F100088CF9C01DFCF9C01F2CF0E941E0360E09E
:103F20008EE00E94A102C7010E948F0064E070E051
:103F300080E090E00E949C035FEFE51AF50A8EEBAB
:103F4000E816F10481F7E0918C078E2F90E0FC01D8
:103F5000EE0FFF1FE80FF91FE959F84F80818F7BA3
:103F6000808320C9F999FECF92BD81BDF89A992727
:103F700080B50895262FF999FECF1FBA92BD81BD55
:103F800020BD0FB6F894FA9AF99A0FBE01960895DB
:103F9000052E97FB1EF400940E94DF1F57FD07D0EB
:103FA0000E94FA1F07FC03D04EF40C94DF1F5095BB
:103FB0004095309521953F4F4F4F5F4F0895909515
:103FC0008095709561957F4F8F4F9F4F08950E9408
:103FD0001C20A59F900DB49F900DA49F800D911D56
:103FE00011240895B7FF0C94E71F0E94E71F821B5E
:103FF000930B0895A1E21A2EAA1BBB1BFD010DC055
:10400000AA1FBB1FEE1FFF1FA217B307E407F50788
:1040100020F0A21BB30BE40BF50B661F771F881F64
:10402000991F1A9469F760957095809590959B01FA
:10403000AC01BD01CF010895A29FB001B39FC001A3
:10404000A39F700D811D1124911DB29F700D811DC4
:104050001124911D08955058BB27AA270E94432080
:104060000C94B6210E94A82138F00E94AF2120F0C4
:1040700039F49F3F19F426F40C94A5210EF4E09531
:10408000E7FB0C949F21E92F0E94C72158F3BA1730
:10409000620773078407950720F079F4A6F50C945E
:1040A000E9210EF4E0950B2EBA2FA02D0B01B901DA
:1040B00090010C01CA01A0011124FF27591B99F09E
:1040C000593F50F4503E68F11A16F040A22F232FAA
:1040D000342F4427585FF3CF469537952795A795FA
:1040E000F0405395C9F77EF41F16BA0B620B730BA1
:1040F000840BBAF09150A1F0FF0FBB1F661F771F12
:10410000881FC2F70EC0BA0F621F731F841F48F4C6
:10411000879577956795B795F7959E3F08F0B0CF4F
:104120009395880F08F09927EE0F97958795089536
:104130000E947B2108F481E008950E94B1200C9434
:10414000B6210E94AF2158F00E94A82140F029F426
:104150005F3F29F00C949F2151110C94EA210C949B
:10416000A5210E94C72168F39923B1F3552391F348
:10417000951B550BBB27AA2762177307840738F0D6
:104180009F5F5F4F220F331F441FAA1FA9F335D033
:104190000E2E3AF0E0E832D091505040E695001CE7
:1041A000CAF72BD0FE2F29D0660F771F881FBB1FA1
:1041B000261737074807AB07B0E809F0BB0B802D7F
:1041C000BF01FF2793585F4F3AF09E3F510578F0AB
:1041D0000C949F210C94EA215F3FE4F3983ED4F3C2
:1041E000869577956795B795F7959F5FC9F7880F7F
:1041F000911D9695879597F90895E1E0660F771FD1
:10420000881FBB1F621773078407BA0720F0621B61
:10421000730B840BBA0BEE1F88F7E09508950E948C
:10422000CF2188F09F5798F0B92F9927B751B0F058
:10423000E1F0660F771F881F991F1AF0BA95C9F72A
:1042400014C0B13091F00E94E921B1E008950C94BE
:10425000E921672F782F8827B85F39F0B93FCCF371
:10426000869577956795B395D9F73EF490958095A7
:10427000709561957F4F8F4F9F4F0895E89409C0C7
:1042800097FB3EF490958095709561957F4F8F4F89
:104290009F4F9923A9F0F92F96E9BB279395F6959F
:1042A000879577956795B795F111F8CFFAF4BB0F1D
:1042B00011F460FF1BC06F5F7F4F8F4F9F4F16C081
:1042C000882311F096E911C0772321F09EE8872F0B
:1042D000762F05C0662371F096E8862F70E060E0C7
:1042E0002AF09A95660F771F881FDAF7880F969540
:1042F000879597F90895990F0008550FAA0BE0E8E4
:10430000FEEF16161706E807F907C0F01216130697
:10431000E407F50798F0621B730B840B950B39F4D7
:104320000A2661F0232B242B252B21F408950A263D
:1043300009F4A140A6958FEF811D811D089597F97D
:104340009F6780E870E060E008959FEF80EC08953B
:1043500000240A9416161706180609060895002464
:104360000A9412161306140605060895092E0394DE
:10437000000C11F4882352F0BB0F40F4BF2B11F452
:1043800060FF04C06F5F7F4F8F4F9F4F089557FDB1
:104390009058440F551F59F05F3F71F04795880FB3
:1043A00097FB991F61F09F3F79F08795089512164A
:1043B00013061406551FF2CF4695F1DF08C01616F6
:1043C00017061806991FF1CF8695710561050894A7
:1043D0000895E894BB2766277727CB0197F90895BE
:1043E0000E947B2108F48FEF08950E9408220C940C
:1043F000B6210E94A82138F00E94AF2120F0952319
:1044000011F00C949F210C94A52111240C94EA2105
:104410000E94C72170F3959FC1F3950F50E0551F7F
:10442000629FF001729FBB27F00DB11D639FAA2709
:10443000F00DB11DAA1F649F6627B00DA11D661F58
:10444000829F2227B00DA11D621F739FB00DA11D79
:10445000621F839FA00D611D221F749F3327A00D33
:10446000611D231F849F600D211D822F762F6A2FCF
:1044700011249F5750409AF0F1F088234AF0EE0F34
:10448000FF1FBB1F661F771F881F91505040A9F761
:104490009E3F510580F00C949F210C94EA215F3FD0
:1044A000E4F3983ED4F3869577956795B795F7959D
:1044B000E7959F5FC1F7FE2B880F911D9695879515
:1044C00097F908950E947B21880B990B0895991BF9
:1044D00079E004C0991F961708F0961B881F7A95FB
:1044E000C9F78095089597FB072E16F4009407D01E
:1044F00077FD09D00E948D2207FC05D03EF49095EF
:1045000081959F4F0895709561957F4F0895EE0FA7
:10451000FF1F0590F491E02D0994AA1BBB1B51E1EC
:1045200007C0AA1FBB1FA617B70710F0A61BB70B23
:10453000881F991F5A95A9F780959095BC01CD01C8
:1045400008950F931F93CF93DF938230910510F45A
:1045500082E090E0E0919107F091920730E020E056
:10456000B0E0A0E0309799F42115310509F44AC074
:10457000281B390B24303105D8F58A819B816115C0
:10458000710589F1FB0193838283FE0111C0408193
:1045900051810281138148175907E0F048175907E4
:1045A00099F4109761F012960C93129713961C933E
:1045B0003296CF01DF91CF911F910F910895009313
:1045C000910710939207F4CF2115310551F042174E
:1045D000530738F0A901DB019A01BD01DF01F801A1
:1045E000C1CFEF01F9CF9093920780939107CDCF80
:1045F000FE01E20FF31F8193919322503109398319
:104600002883D7CF20918F0730919007232B41F437
:1046100020910B0130910C013093900720938F076C
:104620002091090130910A012115310541F42DB77E
:104630003EB740910D0150910E01241B350BE091C6
:104640008F07F0919007E217F307A0F42E1B3F0BA2
:104650002817390778F0AC014E5F5F4F24173507F4
:1046600048F04E0F5F1F5093900740938F07819340
:1046700091939FCFF0E0E0E09CCFCF93DF93009742
:10468000E9F0FC01329713821282A0919107B09158
:104690009207ED0130E020E01097A1F420813181F4
:1046A000820F931F20918F073091900728173907A9
:1046B00009F061C0F0939007E0938F07DF91CF91ED
:1046C0000895EA01CE17DF07E8F54A815B819E0174
:1046D00041155105B1F7E901FB83EA8349915991ED
:1046E000C40FD51FEC17FD0761F4808191810296FC
:1046F000840F951FE90199838883828193819B832D
:104700008A83F0E0E0E012968D919C9113970097D8
:10471000B9F52D913C911197CD010296820F931F0F
:1047200020918F07309190072817390739F6309775
:1047300051F51092920710929107B0939007A093B1
:104740008F07BCCFD383C28340815181840F951FD3
:10475000C817D90761F44E5F5F4F88819981480F70
:10476000591F518340838A819B81938382832115C2
:10477000310509F0B0CFF0939207E09391079ECFF7
:10478000FD01DC01C0CF13821282D7CFFB01DC0117
:1047900004C08D910190801921F441505040C8F718
:1047A000881B990B0895FB01DC014150504048F0F3
:1047B00001900D920020C9F701C01D924150504058
:0847C000E0F70895F894FFCF23
:1047C8000101606400FFFFFFFF00009307800057AE
:1047D800415645000000002F028F01BC018102ED07
:1047E80001CB01DF0100000000460E290E430F0136
:1047F8000E090E730E7D0E000000009F0D8F014301
:104808000F000E000000000F0FE20E430FD20E86BD
:1048180001F900D30E0D0A004B75636B75636B735A
:10482800756872204669726D776172653A20005327
:1048380044206F6B00543D005344206661696C004E
:104848006E616E00696E66006F7666002043004FE9
:10485800737A696C6C61746F72636865636B3A2014
:104868004572726F72004F737A696C6C61746F7203
:10487800636865636B3A204F4B00496E7465726ECE
:10488800616C2074696D653A20004C696768742012
:104898007468726573686F6C64206E756D6265729A
:1048A8003A2000456E7465722074696D6520616EEA
:1048B80064206C69676874207468726573686F6CCB
:1048C8006420696E20666F726D61743A2064617944
:1048D8002E6D6F6E74682E796561725F686F757280
:1048E8003A6D696E7574653A7365636F6E645F6C73
:1048F80069676874202878782E78782E7878785FB9
:1049080078783A78783A78785F78787829005468AF
:1049180065206C696768742074726573686F6C646D
:10492800206D75737420626520616E20696E7465F0
:10493800676572206E756D62657220626574776551
:10494800656E203020616E64203235350020736535
:10495800636F6E6473206C6566740054696D6520BE
:10496800616E6420646174653A20002E003A004C40
:1049780069676874207468726573686F6C643A203C
:1049880000496E7465726E616C2074696D6520777C
:1049980061732075706461746564206163636F720C
:1049A80064696E6720746F20496E707574210063A6
:0A49B80075636B6F6F2E7761760058
:107800000C94343C0C94513C0C94513C0C94513CE1
:107810000C94513C0C94513C0C94513C0C94513CB4
:107820000C94513C0C94513C0C94513C0C94513CA4
:107830000C94513C0C94513C0C94513C0C94513C94
:107840000C94513C0C94513C0C94513C0C94513C84
:107850000C94513C0C94513C0C94513C0C94513C74
:107860000C94513C0C94513C11241FBECFEFD8E036
:10787000DEBFCDBF11E0A0E0B1E0ECE9FFE702C060
:1078800005900D92A230B107D9F712E0A2E0B1E065
:1078900001C01D92AD30B107E1F70E942D3D0C945F
:1078A000CC3F0C94003C982F959595959595959582
:1078B000905D8F708A307CF0282F295A8091C0000B
:1078C00085FFFCCF9093C6008091C00085FFFCCF60
:1078D0002093C6000895282F205DF0CF982F809127
:1078E000C00085FFFCCF9093C6000895EF92FF92F1
:1078F0000F931F93EE24FF2487018091C00087FD22
:1079000017C00894E11CF11C011D111D81E4E8164B
:1079100082E4F8068FE0080780E0180770F3E09132
:107920000401F091050109958091C00087FFE9CF1E
:107930008091C6001F910F91FF90EF9008950E94D3
:10794000763C982F8091C00085FFFCCF9093C600B5
:1079500091362CF490330CF09053892F089597555D
:10796000892F08951F930E949F3C182F0E949F3CCF
:107970001295107F810F1F9108951F93182F882350
:1079800021F00E94763C1150E1F71F9108951F935A
:10799000182F0E94763C803249F0809103018F5F5E
:1079A000809303018530C1F01F9108958091C0003C
:1079B00085FFFCCF84E18093C6008091C00085FFE5
:1079C000FCCF1093C6008091C00085FFFCCF80E102
:1079D0008093C6001F910895E0910401F091050184
:1079E00009951F9108950E94763C803241F0809164
:1079F00003018F5F80930301853081F008958091AA
:107A0000C00085FFFCCF84E18093C6008091C00058
:107A100085FFFCCF80E18093C6000895E0910401CA
:107A2000F09105010995089540E951E08823A1F0FE
:107A30002D9A28EE33E0FA013197F1F721503040CA
:107A4000D1F72D9828EE33E0FA013197F1F7215064
:107A50003040D1F7815061F708953F924F925F9285
:107A60006F927F928F929F92AF92BF92CF92DF924E
:107A7000EF92FF920F931F93CF93DF93000080E16B
:107A80008093C4001092C50088E18093C10086E015
:107A90008093C2005098589A259A81E00E94143D24
:107AA00024E1F22E9EE1E92E85E9D82E0FE0C02ECA
:107AB00010E1B12EAA24A394B1E49B2EA6E58A2E50
:107AC000F2E57F2EE0E26E2E79E4572E63E5462E36
:107AD00050E5352E0E94763C8033B1F18133B9F107
:107AE000803409F46FC0813409F476C0823409F41B
:107AF00085C0853409F488C0803531F1823521F1A3
:107B0000813511F1853509F485C0863509F48DC0BC
:107B1000843609F496C0843709F403C1853709F423
:107B200072C1863709F466C0809103018F5F80932C
:107B30000301853079F6E0910401F0910501099582
:107B40000E94763C803351F60E94F33CC3CF0E94E2
:107B5000763C803249F78091C00085FFFCCFF092DF
:107B6000C6008091C00085FFFCCF9092C600809136
:107B7000C00085FFFCCF8092C6008091C00085FFC9
:107B8000FCCF7092C6008091C00085FFFCCF609250
:107B9000C6008091C00085FFFCCF5092C600809146
:107BA000C00085FFFCCF4092C6008091C00085FFD9
:107BB000FCCF3092C6008091C00085FFFCCFB09210
:107BC000C60088CF0E94763C863808F4BDCF0E945C
:107BD000763C0E94F33C7ECF0E94763C803809F4CC
:107BE0009CC0813809F40BC1823809F43CC1883942
:107BF00009F48FC080E00E94C73C6CCF84E10E94F2
:107C0000BD3C0E94F33C66CF85E00E94BD3C0E94D3
:107C1000F33C60CF0E94763C809306010E94763C44
:107C2000809307010E94F33C55CF0E94763C80333D
:107C300009F41DC183E00E94BD3C80E00E94C73C66
:107C400049CF0E94763C809309020E94763C809343
:107C5000080280910C028E7F80930C020E94763C79
:107C6000853409F415C18091080290910902892B8D
:107C700089F000E010E00E94763CF801E85FFE4FDA
:107C800080830F5F1F4F80910802909109020817AF
:107C9000190788F30E94763C803209F045CF809125
:107CA0000C0280FF01C16091060170910701660F0F
:107CB000771F7093070160930601A0910802B091AD
:107CC00009021097C9F0E8E0F1E09B01AD014E0F09
:107CD0005F1FF999FECF32BD21BD819180BDFA9A17
:107CE000F99A2F5F3F4FE417F50799F76A0F7B1F4B
:107CF00070930701609306018091C00085FFFCCF5F
:107D0000F092C6008091C00085FFFCCFB092C60003
:107D1000E1CE83E00E94C73CDDCE82E00E94C73CFA
:107D2000D9CE0E94763C809309020E94763C8093D3
:107D300008028091060190910701880F991F909386
:107D40000701809306010E94763C853409F4A6C0A1
:107D500080910C028E7F80930C020E94763C8032D0
:107D600009F0B8CE8091C00085FFFCCFF092C6002C
:107D7000609108027091090261157105B9F140E046
:107D800050E080910C02A82FA170B82FB27011C0E2
:107D9000BB2309F45CC0E0910601F0910701319624
:107DA000F0930701E09306014F5F5F4F46175707B7
:107DB000E8F4AA2369F3F999FECF209106013091E6
:107DC000070132BD21BDF89A90B58091C00085FFB2
:107DD000FCCF9093C6002F5F3F4F30930701209355
:107DE00006014F5F5F4F4617570718F38091C00099
:107DF00085FDE5CE8091C00085FFF8CFE0CE81E023
:107E00000E94C73C67CE0E94763C803209F08CCE3F
:107E10008091C00085FFFCCFF092C6008091C00029
:107E200085FFFCCFE092C6008091C00085FFFCCFAB
:107E3000D092C6008091C00085FFFCCFC092C600E2
:107E40008091C00085FFFCCFB092C60043CEE09188
:107E50000601F091070194918091C00085FFFCCF4D
:107E60009093C6009CCF80E10E94C73C33CE0E9415
:107E7000763C0E94763C182F0E94763C112309F430
:107E800083C0113009F484C08FE00E94C73C22CE29
:107E900080910C02816080930C02E5CE80910C02EF
:107EA000816080930C0259CF809107018823880F4D
:107EB000880B8A2180930B02809106019091070123
:107EC000880F991F90930701809306018091080203
:107ED00080FF09C080910802909109020196909359
:107EE000090280930802F894F999FECF1127E091D6
:107EF0000601F0910701C8E0D1E08091080290915D
:107F00000902103091F40091570001700130D9F34B
:107F100003E000935700E89500915700017001308D
:107F2000D9F301E100935700E89509901990009169
:107F3000570001700130D9F301E000935700E89534
:107F40001395103498F011270091570001700130FB
:107F5000D9F305E000935700E895009157000170B0
:107F60000130D9F301E100935700E895329602976A
:107F700009F0C7CF103011F00296E5CF112480919F
:107F8000C00085FFB9CEBCCE8EE10E94C73CA2CD19
:0C7F900085E90E94C73C9ECDF894FFCF0D
:027F9C00800063
:040000030000780081
:00000001FF
